{
  "_format": "hh-sol-artifact-1",
  "contractName": "MyNftERC721Contract",
  "sourceName": "contracts/MyCustomContract.sol",
  "abi": [
    {
      "inputs": [],
      "stateMutability": "nonpayable",
      "type": "constructor"
    },
    {
      "anonymous": false,
      "inputs": [
        {
          "indexed": true,
          "internalType": "address",
          "name": "owner",
          "type": "address"
        },
        {
          "indexed": true,
          "internalType": "address",
          "name": "approved",
          "type": "address"
        },
        {
          "indexed": true,
          "internalType": "uint256",
          "name": "tokenId",
          "type": "uint256"
        }
      ],
      "name": "Approval",
      "type": "event"
    },
    {
      "anonymous": false,
      "inputs": [
        {
          "indexed": true,
          "internalType": "address",
          "name": "owner",
          "type": "address"
        },
        {
          "indexed": true,
          "internalType": "address",
          "name": "operator",
          "type": "address"
        },
        {
          "indexed": false,
          "internalType": "bool",
          "name": "approved",
          "type": "bool"
        }
      ],
      "name": "ApprovalForAll",
      "type": "event"
    },
    {
      "anonymous": false,
      "inputs": [
        {
          "indexed": true,
          "internalType": "bytes32",
          "name": "role",
          "type": "bytes32"
        },
        {
          "indexed": true,
          "internalType": "bytes32",
          "name": "previousAdminRole",
          "type": "bytes32"
        },
        {
          "indexed": true,
          "internalType": "bytes32",
          "name": "newAdminRole",
          "type": "bytes32"
        }
      ],
      "name": "RoleAdminChanged",
      "type": "event"
    },
    {
      "anonymous": false,
      "inputs": [
        {
          "indexed": true,
          "internalType": "bytes32",
          "name": "role",
          "type": "bytes32"
        },
        {
          "indexed": true,
          "internalType": "address",
          "name": "account",
          "type": "address"
        },
        {
          "indexed": true,
          "internalType": "address",
          "name": "sender",
          "type": "address"
        }
      ],
      "name": "RoleGranted",
      "type": "event"
    },
    {
      "anonymous": false,
      "inputs": [
        {
          "indexed": true,
          "internalType": "bytes32",
          "name": "role",
          "type": "bytes32"
        },
        {
          "indexed": true,
          "internalType": "address",
          "name": "account",
          "type": "address"
        },
        {
          "indexed": true,
          "internalType": "address",
          "name": "sender",
          "type": "address"
        }
      ],
      "name": "RoleRevoked",
      "type": "event"
    },
    {
      "anonymous": false,
      "inputs": [
        {
          "indexed": true,
          "internalType": "address",
          "name": "from",
          "type": "address"
        },
        {
          "indexed": true,
          "internalType": "address",
          "name": "to",
          "type": "address"
        },
        {
          "indexed": true,
          "internalType": "uint256",
          "name": "tokenId",
          "type": "uint256"
        }
      ],
      "name": "Transfer",
      "type": "event"
    },
    {
      "inputs": [],
      "name": "DEFAULT_ADMIN_ROLE",
      "outputs": [
        {
          "internalType": "bytes32",
          "name": "",
          "type": "bytes32"
        }
      ],
      "stateMutability": "view",
      "type": "function"
    },
    {
      "inputs": [
        {
          "internalType": "address",
          "name": "to",
          "type": "address"
        },
        {
          "internalType": "uint256",
          "name": "tokenId",
          "type": "uint256"
        }
      ],
      "name": "approve",
      "outputs": [],
      "stateMutability": "nonpayable",
      "type": "function"
    },
    {
      "inputs": [
        {
          "internalType": "address",
          "name": "owner",
          "type": "address"
        }
      ],
      "name": "balanceOf",
      "outputs": [
        {
          "internalType": "uint256",
          "name": "",
          "type": "uint256"
        }
      ],
      "stateMutability": "view",
      "type": "function"
    },
    {
      "inputs": [
        {
          "internalType": "uint256",
          "name": "tokenId",
          "type": "uint256"
        }
      ],
      "name": "buyImToken",
      "outputs": [],
      "stateMutability": "payable",
      "type": "function"
    },
    {
      "inputs": [
        {
          "internalType": "uint256",
          "name": "tokenId",
          "type": "uint256"
        }
      ],
      "name": "getApproved",
      "outputs": [
        {
          "internalType": "address",
          "name": "",
          "type": "address"
        }
      ],
      "stateMutability": "view",
      "type": "function"
    },
    {
      "inputs": [
        {
          "internalType": "bytes32",
          "name": "role",
          "type": "bytes32"
        }
      ],
      "name": "getRoleAdmin",
      "outputs": [
        {
          "internalType": "bytes32",
          "name": "",
          "type": "bytes32"
        }
      ],
      "stateMutability": "view",
      "type": "function"
    },
    {
      "inputs": [
        {
          "internalType": "uint256",
          "name": "tokenId",
          "type": "uint256"
        }
      ],
      "name": "getTokenPrice",
      "outputs": [
        {
          "internalType": "uint256",
          "name": "",
          "type": "uint256"
        }
      ],
      "stateMutability": "view",
      "type": "function"
    },
    {
      "inputs": [],
      "name": "getTransactionCount",
      "outputs": [
        {
          "internalType": "uint256",
          "name": "",
          "type": "uint256"
        }
      ],
      "stateMutability": "view",
      "type": "function"
    },
    {
      "inputs": [
        {
          "internalType": "bytes32",
          "name": "role",
          "type": "bytes32"
        },
        {
          "internalType": "address",
          "name": "account",
          "type": "address"
        }
      ],
      "name": "grantRole",
      "outputs": [],
      "stateMutability": "nonpayable",
      "type": "function"
    },
    {
      "inputs": [
        {
          "internalType": "bytes32",
          "name": "role",
          "type": "bytes32"
        },
        {
          "internalType": "address",
          "name": "account",
          "type": "address"
        }
      ],
      "name": "hasRole",
      "outputs": [
        {
          "internalType": "bool",
          "name": "",
          "type": "bool"
        }
      ],
      "stateMutability": "view",
      "type": "function"
    },
    {
      "inputs": [
        {
          "internalType": "address",
          "name": "owner",
          "type": "address"
        },
        {
          "internalType": "address",
          "name": "operator",
          "type": "address"
        }
      ],
      "name": "isApprovedForAll",
      "outputs": [
        {
          "internalType": "bool",
          "name": "",
          "type": "bool"
        }
      ],
      "stateMutability": "view",
      "type": "function"
    },
    {
      "inputs": [
        {
          "internalType": "address",
          "name": "to",
          "type": "address"
        },
        {
          "internalType": "uint256",
          "name": "tokenId",
          "type": "uint256"
        },
        {
          "internalType": "uint256",
          "name": "price",
          "type": "uint256"
        }
      ],
      "name": "mintImToken",
      "outputs": [],
      "stateMutability": "nonpayable",
      "type": "function"
    },
    {
      "inputs": [],
      "name": "name",
      "outputs": [
        {
          "internalType": "string",
          "name": "",
          "type": "string"
        }
      ],
      "stateMutability": "view",
      "type": "function"
    },
    {
      "inputs": [
        {
          "internalType": "uint256",
          "name": "tokenId",
          "type": "uint256"
        }
      ],
      "name": "ownerOf",
      "outputs": [
        {
          "internalType": "address",
          "name": "",
          "type": "address"
        }
      ],
      "stateMutability": "view",
      "type": "function"
    },
    {
      "inputs": [
        {
          "internalType": "bytes32",
          "name": "role",
          "type": "bytes32"
        },
        {
          "internalType": "address",
          "name": "account",
          "type": "address"
        }
      ],
      "name": "renounceRole",
      "outputs": [],
      "stateMutability": "nonpayable",
      "type": "function"
    },
    {
      "inputs": [
        {
          "internalType": "bytes32",
          "name": "role",
          "type": "bytes32"
        },
        {
          "internalType": "address",
          "name": "account",
          "type": "address"
        }
      ],
      "name": "revokeRole",
      "outputs": [],
      "stateMutability": "nonpayable",
      "type": "function"
    },
    {
      "inputs": [
        {
          "internalType": "address",
          "name": "from",
          "type": "address"
        },
        {
          "internalType": "address",
          "name": "to",
          "type": "address"
        },
        {
          "internalType": "uint256",
          "name": "tokenId",
          "type": "uint256"
        }
      ],
      "name": "safeTransferFrom",
      "outputs": [],
      "stateMutability": "nonpayable",
      "type": "function"
    },
    {
      "inputs": [
        {
          "internalType": "address",
          "name": "from",
          "type": "address"
        },
        {
          "internalType": "address",
          "name": "to",
          "type": "address"
        },
        {
          "internalType": "uint256",
          "name": "tokenId",
          "type": "uint256"
        },
        {
          "internalType": "bytes",
          "name": "_data",
          "type": "bytes"
        }
      ],
      "name": "safeTransferFrom",
      "outputs": [],
      "stateMutability": "nonpayable",
      "type": "function"
    },
    {
      "inputs": [
        {
          "internalType": "address",
          "name": "operator",
          "type": "address"
        },
        {
          "internalType": "bool",
          "name": "approved",
          "type": "bool"
        }
      ],
      "name": "setApprovalForAll",
      "outputs": [],
      "stateMutability": "nonpayable",
      "type": "function"
    },
    {
      "inputs": [
        {
          "internalType": "uint256",
          "name": "price",
          "type": "uint256"
        },
        {
          "internalType": "uint256",
          "name": "tokenId",
          "type": "uint256"
        }
      ],
      "name": "setTokenPrice",
      "outputs": [],
      "stateMutability": "nonpayable",
      "type": "function"
    },
    {
      "inputs": [
        {
          "internalType": "bytes4",
          "name": "interfaceId",
          "type": "bytes4"
        }
      ],
      "name": "supportsInterface",
      "outputs": [
        {
          "internalType": "bool",
          "name": "",
          "type": "bool"
        }
      ],
      "stateMutability": "view",
      "type": "function"
    },
    {
      "inputs": [],
      "name": "symbol",
      "outputs": [
        {
          "internalType": "string",
          "name": "",
          "type": "string"
        }
      ],
      "stateMutability": "view",
      "type": "function"
    },
    {
      "inputs": [
        {
          "internalType": "uint256",
          "name": "tokenId",
          "type": "uint256"
        }
      ],
      "name": "tokenURI",
      "outputs": [
        {
          "internalType": "string",
          "name": "",
          "type": "string"
        }
      ],
      "stateMutability": "view",
      "type": "function"
    },
    {
      "inputs": [
        {
          "internalType": "address",
          "name": "from",
          "type": "address"
        },
        {
          "internalType": "address",
          "name": "to",
          "type": "address"
        },
        {
          "internalType": "uint256",
          "name": "tokenId",
          "type": "uint256"
        }
      ],
      "name": "transferFrom",
      "outputs": [],
      "stateMutability": "nonpayable",
      "type": "function"
    }
  ],
  "bytecode": "0x60806040523480156200001157600080fd5b506040518060400160405280600781526020017f496d546f6b656e000000000000000000000000000000000000000000000000008152506040518060400160405280600581526020017f494d544b4e00000000000000000000000000000000000000000000000000000081525081600090805190602001906200009692919062000250565b508060019080519060200190620000af92919062000250565b505050620000c76000801b33620000d560201b60201c565b600060078190555062000365565b620000e78282620000eb60201b60201c565b5050565b620000fd8282620001dd60201b60201c565b620001d95760016006600084815260200190815260200160002060000160008373ffffffffffffffffffffffffffffffffffffffff1673ffffffffffffffffffffffffffffffffffffffff16815260200190815260200160002060006101000a81548160ff0219169083151502179055506200017e6200024860201b60201c565b73ffffffffffffffffffffffffffffffffffffffff168173ffffffffffffffffffffffffffffffffffffffff16837f2f8788117e7eff1d82e926ec794901d17c78024a50270940304540a733656f0d60405160405180910390a45b5050565b60006006600084815260200190815260200160002060000160008373ffffffffffffffffffffffffffffffffffffffff1673ffffffffffffffffffffffffffffffffffffffff16815260200190815260200160002060009054906101000a900460ff16905092915050565b600033905090565b8280546200025e9062000300565b90600052602060002090601f016020900481019282620002825760008555620002ce565b82601f106200029d57805160ff1916838001178555620002ce565b82800160010185558215620002ce579182015b82811115620002cd578251825591602001919060010190620002b0565b5b509050620002dd9190620002e1565b5090565b5b80821115620002fc576000816000905550600101620002e2565b5090565b600060028204905060018216806200031957607f821691505b6020821081141562000330576200032f62000336565b5b50919050565b7f4e487b7100000000000000000000000000000000000000000000000000000000600052602260045260246000fd5b6137c380620003756000396000f3fe60806040526004361061014b5760003560e01c806370a08231116100b6578063c457fb371161006f578063c457fb37146104b2578063c87b56dd146104ef578063cc9233391461052c578063d547741f14610548578063e985e9c514610571578063eb685c47146105ae5761014b565b806370a082311461039057806391d14854146103cd57806395d89b411461040a578063a217fddf14610435578063a22cb46514610460578063b88d4fde146104895761014b565b8063248a9ca311610108578063248a9ca3146102705780632e7700f0146102ad5780632f2ff15d146102d857806336568abe1461030157806342842e0e1461032a5780636352211e146103535761014b565b806301ffc9a71461015057806306fdde031461018d578063081812fc146101b8578063095ea7b3146101f55780630fdf95061461021e57806323b872dd14610247575b600080fd5b34801561015c57600080fd5b5061017760048036038101906101729190612612565b6105d7565b6040516101849190612b29565b60405180910390f35b34801561019957600080fd5b506101a26105e9565b6040516101af9190612b5f565b60405180910390f35b3480156101c457600080fd5b506101df60048036038101906101da9190612664565b61067b565b6040516101ec9190612ac2565b60405180910390f35b34801561020157600080fd5b5061021c60048036038101906102179190612522565b610700565b005b34801561022a57600080fd5b506102456004803603810190610240919061255e565b610818565b005b34801561025357600080fd5b5061026e6004803603810190610269919061241c565b610859565b005b34801561027c57600080fd5b50610297600480360381019061029291906125ad565b6108b9565b6040516102a49190612b44565b60405180910390f35b3480156102b957600080fd5b506102c26108d9565b6040516102cf9190612dc1565b60405180910390f35b3480156102e457600080fd5b506102ff60048036038101906102fa91906125d6565b6108e3565b005b34801561030d57600080fd5b50610328600480360381019061032391906125d6565b61090c565b005b34801561033657600080fd5b50610351600480360381019061034c919061241c565b61098f565b005b34801561035f57600080fd5b5061037a60048036038101906103759190612664565b6109af565b6040516103879190612ac2565b60405180910390f35b34801561039c57600080fd5b506103b760048036038101906103b291906123b7565b610a61565b6040516103c49190612dc1565b60405180910390f35b3480156103d957600080fd5b506103f460048036038101906103ef91906125d6565b610b19565b6040516104019190612b29565b60405180910390f35b34801561041657600080fd5b5061041f610b84565b60405161042c9190612b5f565b60405180910390f35b34801561044157600080fd5b5061044a610c16565b6040516104579190612b44565b60405180910390f35b34801561046c57600080fd5b50610487600480360381019061048291906124e6565b610c1d565b005b34801561049557600080fd5b506104b060048036038101906104ab919061246b565b610d9e565b005b3480156104be57600080fd5b506104d960048036038101906104d49190612664565b610e00565b6040516104e69190612dc1565b60405180910390f35b3480156104fb57600080fd5b5061051660048036038101906105119190612664565b610e1d565b6040516105239190612b5f565b60405180910390f35b61054660048036038101906105419190612664565b610ec4565b005b34801561055457600080fd5b5061056f600480360381019061056a91906125d6565b610fc4565b005b34801561057d57600080fd5b50610598600480360381019061059391906123e0565b610fed565b6040516105a59190612b29565b60405180910390f35b3480156105ba57600080fd5b506105d560048036038101906105d0919061268d565b611081565b005b60006105e282611134565b9050919050565b6060600080546105f890613074565b80601f016020809104026020016040519081016040528092919081815260200182805461062490613074565b80156106715780601f1061064657610100808354040283529160200191610671565b820191906000526020600020905b81548152906001019060200180831161065457829003601f168201915b5050505050905090565b6000610686826111ae565b6106c5576040517f08c379a00000000000000000000000000000000000000000000000000000000081526004016106bc90612ce1565b60405180910390fd5b6004600083815260200190815260200160002060009054906101000a900473ffffffffffffffffffffffffffffffffffffffff169050919050565b600061070b826109af565b90508073ffffffffffffffffffffffffffffffffffffffff168373ffffffffffffffffffffffffffffffffffffffff16141561077c576040517f08c379a000000000000000000000000000000000000000000000000000000000815260040161077390612d41565b60405180910390fd5b8073ffffffffffffffffffffffffffffffffffffffff1661079b61121a565b73ffffffffffffffffffffffffffffffffffffffff1614806107ca57506107c9816107c461121a565b610fed565b5b610809576040517f08c379a000000000000000000000000000000000000000000000000000000000815260040161080090612c61565b60405180910390fd5b6108138383611222565b505050565b61082283836112db565b80600860008481526020019081526020016000208190555060016007600082825461084d9190612e75565b92505081905550505050565b61086a61086461121a565b826112f9565b6108a9576040517f08c379a00000000000000000000000000000000000000000000000000000000081526004016108a090612d61565b60405180910390fd5b6108b48383836113d7565b505050565b600060066000838152602001908152602001600020600101549050919050565b6000600754905090565b6108ec826108b9565b6108fd816108f861121a565b611633565b61090783836116d0565b505050565b61091461121a565b73ffffffffffffffffffffffffffffffffffffffff168173ffffffffffffffffffffffffffffffffffffffff1614610981576040517f08c379a000000000000000000000000000000000000000000000000000000000815260040161097890612da1565b60405180910390fd5b61098b82826117b1565b5050565b6109aa83838360405180602001604052806000815250610d9e565b505050565b6000806002600084815260200190815260200160002060009054906101000a900473ffffffffffffffffffffffffffffffffffffffff169050600073ffffffffffffffffffffffffffffffffffffffff168173ffffffffffffffffffffffffffffffffffffffff161415610a58576040517f08c379a0000000000000000000000000000000000000000000000000000000008152600401610a4f90612ca1565b60405180910390fd5b80915050919050565b60008073ffffffffffffffffffffffffffffffffffffffff168273ffffffffffffffffffffffffffffffffffffffff161415610ad2576040517f08c379a0000000000000000000000000000000000000000000000000000000008152600401610ac990612c81565b60405180910390fd5b600360008373ffffffffffffffffffffffffffffffffffffffff1673ffffffffffffffffffffffffffffffffffffffff168152602001908152602001600020549050919050565b60006006600084815260200190815260200160002060000160008373ffffffffffffffffffffffffffffffffffffffff1673ffffffffffffffffffffffffffffffffffffffff16815260200190815260200160002060009054906101000a900460ff16905092915050565b606060018054610b9390613074565b80601f0160208091040260200160405190810160405280929190818152602001828054610bbf90613074565b8015610c0c5780601f10610be157610100808354040283529160200191610c0c565b820191906000526020600020905b815481529060010190602001808311610bef57829003601f168201915b5050505050905090565b6000801b81565b610c2561121a565b73ffffffffffffffffffffffffffffffffffffffff168273ffffffffffffffffffffffffffffffffffffffff161415610c93576040517f08c379a0000000000000000000000000000000000000000000000000000000008152600401610c8a90612c01565b60405180910390fd5b8060056000610ca061121a565b73ffffffffffffffffffffffffffffffffffffffff1673ffffffffffffffffffffffffffffffffffffffff16815260200190815260200160002060008473ffffffffffffffffffffffffffffffffffffffff1673ffffffffffffffffffffffffffffffffffffffff16815260200190815260200160002060006101000a81548160ff0219169083151502179055508173ffffffffffffffffffffffffffffffffffffffff16610d4d61121a565b73ffffffffffffffffffffffffffffffffffffffff167f17307eab39ab6107e8899845ad3d59bd9653f200f220920489ca2b5937696c3183604051610d929190612b29565b60405180910390a35050565b610daf610da961121a565b836112f9565b610dee576040517f08c379a0000000000000000000000000000000000000000000000000000000008152600401610de590612d61565b60405180910390fd5b610dfa84848484611893565b50505050565b600060086000838152602001908152602001600020549050919050565b6060610e28826111ae565b610e67576040517f08c379a0000000000000000000000000000000000000000000000000000000008152600401610e5e90612d21565b60405180910390fd5b6000610e716118ef565b90506000815111610e915760405180602001604052806000815250610ebc565b80610e9b84611906565b604051602001610eac929190612a64565b6040516020818303038152906040525b915050919050565b60086000828152602001908152602001600020543414610f19576040517f08c379a0000000000000000000000000000000000000000000000000000000008152600401610f1090612c21565b60405180910390fd5b60003490506000610f29836109af565b9050610f3c610f3661121a565b84611222565b610f5e81610f4861121a565b8560405180602001604052806000815250610d9e565b8073ffffffffffffffffffffffffffffffffffffffff166108fc839081150290604051600060405180830381858888f19350505050158015610fa4573d6000803e3d6000fd5b50600160076000828254610fb89190612e75565b92505081905550505050565b610fcd826108b9565b610fde81610fd961121a565b611633565b610fe883836117b1565b505050565b6000600560008473ffffffffffffffffffffffffffffffffffffffff1673ffffffffffffffffffffffffffffffffffffffff16815260200190815260200160002060008373ffffffffffffffffffffffffffffffffffffffff1673ffffffffffffffffffffffffffffffffffffffff16815260200190815260200160002060009054906101000a900460ff16905092915050565b61108961121a565b73ffffffffffffffffffffffffffffffffffffffff166110a8826109af565b73ffffffffffffffffffffffffffffffffffffffff16146110fe576040517f08c379a00000000000000000000000000000000000000000000000000000000081526004016110f590612d81565b60405180910390fd5b8160086000838152602001908152602001600020819055506001600760008282546111299190612e75565b925050819055505050565b60007f7965db0b000000000000000000000000000000000000000000000000000000007bffffffffffffffffffffffffffffffffffffffffffffffffffffffff1916827bffffffffffffffffffffffffffffffffffffffffffffffffffffffff191614806111a757506111a682611ab3565b5b9050919050565b60008073ffffffffffffffffffffffffffffffffffffffff166002600084815260200190815260200160002060009054906101000a900473ffffffffffffffffffffffffffffffffffffffff1673ffffffffffffffffffffffffffffffffffffffff1614159050919050565b600033905090565b816004600083815260200190815260200160002060006101000a81548173ffffffffffffffffffffffffffffffffffffffff021916908373ffffffffffffffffffffffffffffffffffffffff160217905550808273ffffffffffffffffffffffffffffffffffffffff16611295836109af565b73ffffffffffffffffffffffffffffffffffffffff167f8c5be1e5ebec7d5bd14f71427d1e84f3dd0314c0f7b2291e5b200ac8c7c3b92560405160405180910390a45050565b6112f5828260405180602001604052806000815250611b95565b5050565b6000611304826111ae565b611343576040517f08c379a000000000000000000000000000000000000000000000000000000000815260040161133a90612c41565b60405180910390fd5b600061134e836109af565b90508073ffffffffffffffffffffffffffffffffffffffff168473ffffffffffffffffffffffffffffffffffffffff1614806113bd57508373ffffffffffffffffffffffffffffffffffffffff166113a58461067b565b73ffffffffffffffffffffffffffffffffffffffff16145b806113ce57506113cd8185610fed565b5b91505092915050565b8273ffffffffffffffffffffffffffffffffffffffff166113f7826109af565b73ffffffffffffffffffffffffffffffffffffffff161461144d576040517f08c379a000000000000000000000000000000000000000000000000000000000815260040161144490612d01565b60405180910390fd5b600073ffffffffffffffffffffffffffffffffffffffff168273ffffffffffffffffffffffffffffffffffffffff1614156114bd576040517f08c379a00000000000000000000000000000000000000000000000000000000081526004016114b490612be1565b60405180910390fd5b6114c8838383611bf0565b6114d3600082611222565b6001600360008573ffffffffffffffffffffffffffffffffffffffff1673ffffffffffffffffffffffffffffffffffffffff16815260200190815260200160002060008282546115239190612f56565b925050819055506001600360008473ffffffffffffffffffffffffffffffffffffffff1673ffffffffffffffffffffffffffffffffffffffff168152602001908152602001600020600082825461157a9190612e75565b92505081905550816002600083815260200190815260200160002060006101000a81548173ffffffffffffffffffffffffffffffffffffffff021916908373ffffffffffffffffffffffffffffffffffffffff160217905550808273ffffffffffffffffffffffffffffffffffffffff168473ffffffffffffffffffffffffffffffffffffffff167fddf252ad1be2c89b69c2b068fc378daa952ba7f163c4a11628f55a4df523b3ef60405160405180910390a4505050565b61163d8282610b19565b6116cc576116628173ffffffffffffffffffffffffffffffffffffffff166014611bf5565b6116708360001c6020611bf5565b604051602001611681929190612a88565b6040516020818303038152906040526040517f08c379a00000000000000000000000000000000000000000000000000000000081526004016116c39190612b5f565b60405180910390fd5b5050565b6116da8282610b19565b6117ad5760016006600084815260200190815260200160002060000160008373ffffffffffffffffffffffffffffffffffffffff1673ffffffffffffffffffffffffffffffffffffffff16815260200190815260200160002060006101000a81548160ff02191690831515021790555061175261121a565b73ffffffffffffffffffffffffffffffffffffffff168173ffffffffffffffffffffffffffffffffffffffff16837f2f8788117e7eff1d82e926ec794901d17c78024a50270940304540a733656f0d60405160405180910390a45b5050565b6117bb8282610b19565b1561188f5760006006600084815260200190815260200160002060000160008373ffffffffffffffffffffffffffffffffffffffff1673ffffffffffffffffffffffffffffffffffffffff16815260200190815260200160002060006101000a81548160ff02191690831515021790555061183461121a565b73ffffffffffffffffffffffffffffffffffffffff168173ffffffffffffffffffffffffffffffffffffffff16837ff6391f5c32d9c69d2a47ea670b442974b53935d1edc7fd64eb21e047a839171b60405160405180910390a45b5050565b61189e8484846113d7565b6118aa84848484611eef565b6118e9576040517f08c379a00000000000000000000000000000000000000000000000000000000081526004016118e090612ba1565b60405180910390fd5b50505050565b606060405180602001604052806000815250905090565b6060600082141561194e576040518060400160405280600181526020017f30000000000000000000000000000000000000000000000000000000000000008152509050611aae565b600082905060005b60008214611980578080611969906130d7565b915050600a826119799190612ecb565b9150611956565b60008167ffffffffffffffff8111156119c2577f4e487b7100000000000000000000000000000000000000000000000000000000600052604160045260246000fd5b6040519080825280601f01601f1916602001820160405280156119f45781602001600182028036833780820191505090505b5090505b60008514611aa757600182611a0d9190612f56565b9150600a85611a1c9190613120565b6030611a289190612e75565b60f81b818381518110611a64577f4e487b7100000000000000000000000000000000000000000000000000000000600052603260045260246000fd5b60200101907effffffffffffffffffffffffffffffffffffffffffffffffffffffffffffff1916908160001a905350600a85611aa09190612ecb565b94506119f8565b8093505050505b919050565b60007f80ac58cd000000000000000000000000000000000000000000000000000000007bffffffffffffffffffffffffffffffffffffffffffffffffffffffff1916827bffffffffffffffffffffffffffffffffffffffffffffffffffffffff19161480611b7e57507f5b5e139f000000000000000000000000000000000000000000000000000000007bffffffffffffffffffffffffffffffffffffffffffffffffffffffff1916827bffffffffffffffffffffffffffffffffffffffffffffffffffffffff1916145b80611b8e5750611b8d82612086565b5b9050919050565b611b9f83836120f0565b611bac6000848484611eef565b611beb576040517f08c379a0000000000000000000000000000000000000000000000000000000008152600401611be290612ba1565b60405180910390fd5b505050565b505050565b606060006002836002611c089190612efc565b611c129190612e75565b67ffffffffffffffff811115611c51577f4e487b7100000000000000000000000000000000000000000000000000000000600052604160045260246000fd5b6040519080825280601f01601f191660200182016040528015611c835781602001600182028036833780820191505090505b5090507f300000000000000000000000000000000000000000000000000000000000000081600081518110611ce1577f4e487b7100000000000000000000000000000000000000000000000000000000600052603260045260246000fd5b60200101907effffffffffffffffffffffffffffffffffffffffffffffffffffffffffffff1916908160001a9053507f780000000000000000000000000000000000000000000000000000000000000081600181518110611d6b577f4e487b7100000000000000000000000000000000000000000000000000000000600052603260045260246000fd5b60200101907effffffffffffffffffffffffffffffffffffffffffffffffffffffffffffff1916908160001a90535060006001846002611dab9190612efc565b611db59190612e75565b90505b6001811115611ea1577f3031323334353637383961626364656600000000000000000000000000000000600f861660108110611e1d577f4e487b7100000000000000000000000000000000000000000000000000000000600052603260045260246000fd5b1a60f81b828281518110611e5a577f4e487b7100000000000000000000000000000000000000000000000000000000600052603260045260246000fd5b60200101907effffffffffffffffffffffffffffffffffffffffffffffffffffffffffffff1916908160001a905350600485901c945080611e9a9061304a565b9050611db8565b5060008414611ee5576040517f08c379a0000000000000000000000000000000000000000000000000000000008152600401611edc90612b81565b60405180910390fd5b8091505092915050565b6000611f108473ffffffffffffffffffffffffffffffffffffffff166122be565b15612079578373ffffffffffffffffffffffffffffffffffffffff1663150b7a02611f3961121a565b8786866040518563ffffffff1660e01b8152600401611f5b9493929190612add565b602060405180830381600087803b158015611f7557600080fd5b505af1925050508015611fa657506040513d601f19601f82011682018060405250810190611fa3919061263b565b60015b612029573d8060008114611fd6576040519150601f19603f3d011682016040523d82523d6000602084013e611fdb565b606091505b50600081511415612021576040517f08c379a000000000000000000000000000000000000000000000000000000000815260040161201890612ba1565b60405180910390fd5b805181602001fd5b63150b7a0260e01b7bffffffffffffffffffffffffffffffffffffffffffffffffffffffff1916817bffffffffffffffffffffffffffffffffffffffffffffffffffffffff19161491505061207e565b600190505b949350505050565b60007f01ffc9a7000000000000000000000000000000000000000000000000000000007bffffffffffffffffffffffffffffffffffffffffffffffffffffffff1916827bffffffffffffffffffffffffffffffffffffffffffffffffffffffff1916149050919050565b600073ffffffffffffffffffffffffffffffffffffffff168273ffffffffffffffffffffffffffffffffffffffff161415612160576040517f08c379a000000000000000000000000000000000000000000000000000000000815260040161215790612cc1565b60405180910390fd5b612169816111ae565b156121a9576040517f08c379a00000000000000000000000000000000000000000000000000000000081526004016121a090612bc1565b60405180910390fd5b6121b560008383611bf0565b6001600360008473ffffffffffffffffffffffffffffffffffffffff1673ffffffffffffffffffffffffffffffffffffffff16815260200190815260200160002060008282546122059190612e75565b92505081905550816002600083815260200190815260200160002060006101000a81548173ffffffffffffffffffffffffffffffffffffffff021916908373ffffffffffffffffffffffffffffffffffffffff160217905550808273ffffffffffffffffffffffffffffffffffffffff16600073ffffffffffffffffffffffffffffffffffffffff167fddf252ad1be2c89b69c2b068fc378daa952ba7f163c4a11628f55a4df523b3ef60405160405180910390a45050565b600080823b905060008111915050919050565b60006122e46122df84612e01565b612ddc565b9050828152602081018484840111156122fc57600080fd5b612307848285613008565b509392505050565b60008135905061231e8161371a565b92915050565b60008135905061233381613731565b92915050565b60008135905061234881613748565b92915050565b60008135905061235d8161375f565b92915050565b6000815190506123728161375f565b92915050565b600082601f83011261238957600080fd5b81356123998482602086016122d1565b91505092915050565b6000813590506123b181613776565b92915050565b6000602082840312156123c957600080fd5b60006123d78482850161230f565b91505092915050565b600080604083850312156123f357600080fd5b60006124018582860161230f565b92505060206124128582860161230f565b9150509250929050565b60008060006060848603121561243157600080fd5b600061243f8682870161230f565b93505060206124508682870161230f565b9250506040612461868287016123a2565b9150509250925092565b6000806000806080858703121561248157600080fd5b600061248f8782880161230f565b94505060206124a08782880161230f565b93505060406124b1878288016123a2565b925050606085013567ffffffffffffffff8111156124ce57600080fd5b6124da87828801612378565b91505092959194509250565b600080604083850312156124f957600080fd5b60006125078582860161230f565b925050602061251885828601612324565b9150509250929050565b6000806040838503121561253557600080fd5b60006125438582860161230f565b9250506020612554858286016123a2565b9150509250929050565b60008060006060848603121561257357600080fd5b60006125818682870161230f565b9350506020612592868287016123a2565b92505060406125a3868287016123a2565b9150509250925092565b6000602082840312156125bf57600080fd5b60006125cd84828501612339565b91505092915050565b600080604083850312156125e957600080fd5b60006125f785828601612339565b92505060206126088582860161230f565b9150509250929050565b60006020828403121561262457600080fd5b60006126328482850161234e565b91505092915050565b60006020828403121561264d57600080fd5b600061265b84828501612363565b91505092915050565b60006020828403121561267657600080fd5b6000612684848285016123a2565b91505092915050565b600080604083850312156126a057600080fd5b60006126ae858286016123a2565b92505060206126bf858286016123a2565b9150509250929050565b6126d281612f8a565b82525050565b6126e181612f9c565b82525050565b6126f081612fa8565b82525050565b600061270182612e32565b61270b8185612e48565b935061271b818560208601613017565b6127248161320d565b840191505092915050565b600061273a82612e3d565b6127448185612e59565b9350612754818560208601613017565b61275d8161320d565b840191505092915050565b600061277382612e3d565b61277d8185612e6a565b935061278d818560208601613017565b80840191505092915050565b60006127a6602083612e59565b91506127b18261321e565b602082019050919050565b60006127c9603283612e59565b91506127d482613247565b604082019050919050565b60006127ec601c83612e59565b91506127f782613296565b602082019050919050565b600061280f602483612e59565b915061281a826132bf565b604082019050919050565b6000612832601983612e59565b915061283d8261330e565b602082019050919050565b6000612855601383612e59565b915061286082613337565b602082019050919050565b6000612878602c83612e59565b915061288382613360565b604082019050919050565b600061289b603883612e59565b91506128a6826133af565b604082019050919050565b60006128be602a83612e59565b91506128c9826133fe565b604082019050919050565b60006128e1602983612e59565b91506128ec8261344d565b604082019050919050565b6000612904602083612e59565b915061290f8261349c565b602082019050919050565b6000612927602c83612e59565b9150612932826134c5565b604082019050919050565b600061294a602983612e59565b915061295582613514565b604082019050919050565b600061296d602f83612e59565b915061297882613563565b604082019050919050565b6000612990602183612e59565b915061299b826135b2565b604082019050919050565b60006129b3603183612e59565b91506129be82613601565b604082019050919050565b60006129d6601783612e6a565b91506129e182613650565b601782019050919050565b60006129f9601a83612e59565b9150612a0482613679565b602082019050919050565b6000612a1c601183612e6a565b9150612a27826136a2565b601182019050919050565b6000612a3f602f83612e59565b9150612a4a826136cb565b604082019050919050565b612a5e81612ffe565b82525050565b6000612a708285612768565b9150612a7c8284612768565b91508190509392505050565b6000612a93826129c9565b9150612a9f8285612768565b9150612aaa82612a0f565b9150612ab68284612768565b91508190509392505050565b6000602082019050612ad760008301846126c9565b92915050565b6000608082019050612af260008301876126c9565b612aff60208301866126c9565b612b0c6040830185612a55565b8181036060830152612b1e81846126f6565b905095945050505050565b6000602082019050612b3e60008301846126d8565b92915050565b6000602082019050612b5960008301846126e7565b92915050565b60006020820190508181036000830152612b79818461272f565b905092915050565b60006020820190508181036000830152612b9a81612799565b9050919050565b60006020820190508181036000830152612bba816127bc565b9050919050565b60006020820190508181036000830152612bda816127df565b9050919050565b60006020820190508181036000830152612bfa81612802565b9050919050565b60006020820190508181036000830152612c1a81612825565b9050919050565b60006020820190508181036000830152612c3a81612848565b9050919050565b60006020820190508181036000830152612c5a8161286b565b9050919050565b60006020820190508181036000830152612c7a8161288e565b9050919050565b60006020820190508181036000830152612c9a816128b1565b9050919050565b60006020820190508181036000830152612cba816128d4565b9050919050565b60006020820190508181036000830152612cda816128f7565b9050919050565b60006020820190508181036000830152612cfa8161291a565b9050919050565b60006020820190508181036000830152612d1a8161293d565b9050919050565b60006020820190508181036000830152612d3a81612960565b9050919050565b60006020820190508181036000830152612d5a81612983565b9050919050565b60006020820190508181036000830152612d7a816129a6565b9050919050565b60006020820190508181036000830152612d9a816129ec565b9050919050565b60006020820190508181036000830152612dba81612a32565b9050919050565b6000602082019050612dd66000830184612a55565b92915050565b6000612de6612df7565b9050612df282826130a6565b919050565b6000604051905090565b600067ffffffffffffffff821115612e1c57612e1b6131de565b5b612e258261320d565b9050602081019050919050565b600081519050919050565b600081519050919050565b600082825260208201905092915050565b600082825260208201905092915050565b600081905092915050565b6000612e8082612ffe565b9150612e8b83612ffe565b9250827fffffffffffffffffffffffffffffffffffffffffffffffffffffffffffffffff03821115612ec057612ebf613151565b5b828201905092915050565b6000612ed682612ffe565b9150612ee183612ffe565b925082612ef157612ef0613180565b5b828204905092915050565b6000612f0782612ffe565b9150612f1283612ffe565b9250817fffffffffffffffffffffffffffffffffffffffffffffffffffffffffffffffff0483118215151615612f4b57612f4a613151565b5b828202905092915050565b6000612f6182612ffe565b9150612f6c83612ffe565b925082821015612f7f57612f7e613151565b5b828203905092915050565b6000612f9582612fde565b9050919050565b60008115159050919050565b6000819050919050565b60007fffffffff0000000000000000000000000000000000000000000000000000000082169050919050565b600073ffffffffffffffffffffffffffffffffffffffff82169050919050565b6000819050919050565b82818337600083830152505050565b60005b8381101561303557808201518184015260208101905061301a565b83811115613044576000848401525b50505050565b600061305582612ffe565b9150600082141561306957613068613151565b5b600182039050919050565b6000600282049050600182168061308c57607f821691505b602082108114156130a05761309f6131af565b5b50919050565b6130af8261320d565b810181811067ffffffffffffffff821117156130ce576130cd6131de565b5b80604052505050565b60006130e282612ffe565b91507fffffffffffffffffffffffffffffffffffffffffffffffffffffffffffffffff82141561311557613114613151565b5b600182019050919050565b600061312b82612ffe565b915061313683612ffe565b92508261314657613145613180565b5b828206905092915050565b7f4e487b7100000000000000000000000000000000000000000000000000000000600052601160045260246000fd5b7f4e487b7100000000000000000000000000000000000000000000000000000000600052601260045260246000fd5b7f4e487b7100000000000000000000000000000000000000000000000000000000600052602260045260246000fd5b7f4e487b7100000000000000000000000000000000000000000000000000000000600052604160045260246000fd5b6000601f19601f8301169050919050565b7f537472696e67733a20686578206c656e67746820696e73756666696369656e74600082015250565b7f4552433732313a207472616e7366657220746f206e6f6e20455243373231526560008201527f63656976657220696d706c656d656e7465720000000000000000000000000000602082015250565b7f4552433732313a20746f6b656e20616c7265616479206d696e74656400000000600082015250565b7f4552433732313a207472616e7366657220746f20746865207a65726f2061646460008201527f7265737300000000000000000000000000000000000000000000000000000000602082015250565b7f4552433732313a20617070726f766520746f2063616c6c657200000000000000600082015250565b7f546f6b656e207072696365206e6f74206d657400000000000000000000000000600082015250565b7f4552433732313a206f70657261746f7220717565727920666f72206e6f6e657860008201527f697374656e7420746f6b656e0000000000000000000000000000000000000000602082015250565b7f4552433732313a20617070726f76652063616c6c6572206973206e6f74206f7760008201527f6e6572206e6f7220617070726f76656420666f7220616c6c0000000000000000602082015250565b7f4552433732313a2062616c616e636520717565727920666f7220746865207a6560008201527f726f206164647265737300000000000000000000000000000000000000000000602082015250565b7f4552433732313a206f776e657220717565727920666f72206e6f6e657869737460008201527f656e7420746f6b656e0000000000000000000000000000000000000000000000602082015250565b7f4552433732313a206d696e7420746f20746865207a65726f2061646472657373600082015250565b7f4552433732313a20617070726f76656420717565727920666f72206e6f6e657860008201527f697374656e7420746f6b656e0000000000000000000000000000000000000000602082015250565b7f4552433732313a207472616e73666572206f6620746f6b656e2074686174206960008201527f73206e6f74206f776e0000000000000000000000000000000000000000000000602082015250565b7f4552433732314d657461646174613a2055524920717565727920666f72206e6f60008201527f6e6578697374656e7420746f6b656e0000000000000000000000000000000000602082015250565b7f4552433732313a20617070726f76616c20746f2063757272656e74206f776e6560008201527f7200000000000000000000000000000000000000000000000000000000000000602082015250565b7f4552433732313a207472616e736665722063616c6c6572206973206e6f74206f60008201527f776e6572206e6f7220617070726f766564000000000000000000000000000000602082015250565b7f416363657373436f6e74726f6c3a206163636f756e7420000000000000000000600082015250565b7f4e6f7420746865206f776e6572206f662074686520746f6b656e000000000000600082015250565b7f206973206d697373696e6720726f6c6520000000000000000000000000000000600082015250565b7f416363657373436f6e74726f6c3a2063616e206f6e6c792072656e6f756e636560008201527f20726f6c657320666f722073656c660000000000000000000000000000000000602082015250565b61372381612f8a565b811461372e57600080fd5b50565b61373a81612f9c565b811461374557600080fd5b50565b61375181612fa8565b811461375c57600080fd5b50565b61376881612fb2565b811461377357600080fd5b50565b61377f81612ffe565b811461378a57600080fd5b5056fea26469706673582212204eeec1cb776b0676257fe2d71965cebfade3d1aa44639dbc4cff6662b1592a2664736f6c63430008020033",
  "linkReferences": {},
  "deployedLinkReferences": {}
}